{
  "contractName": "HelloCoin",
  "abi": [
    {
      "inputs": [],
      "stateMutability": "nonpayable",
      "type": "constructor"
    },
    {
      "anonymous": false,
      "inputs": [
        {
          "indexed": false,
          "internalType": "address",
          "name": "_from",
          "type": "address"
        },
        {
          "indexed": false,
          "internalType": "address",
          "name": "_to",
          "type": "address"
        },
        {
          "indexed": false,
          "internalType": "uint256",
          "name": "_value",
          "type": "uint256"
        }
      ],
      "name": "Transfer",
      "type": "event"
    },
    {
      "inputs": [],
      "name": "name",
      "outputs": [
        {
          "internalType": "string",
          "name": "",
          "type": "string"
        }
      ],
      "stateMutability": "view",
      "type": "function",
      "constant": true
    },
    {
      "inputs": [],
      "name": "symbol",
      "outputs": [
        {
          "internalType": "string",
          "name": "",
          "type": "string"
        }
      ],
      "stateMutability": "view",
      "type": "function",
      "constant": true
    },
    {
      "inputs": [
        {
          "internalType": "address",
          "name": "_receiver",
          "type": "address"
        },
        {
          "internalType": "uint256",
          "name": "_amount",
          "type": "uint256"
        }
      ],
      "name": "sendCoin",
      "outputs": [
        {
          "internalType": "bool",
          "name": "sufficient",
          "type": "bool"
        }
      ],
      "stateMutability": "nonpayable",
      "type": "function"
    },
    {
      "inputs": [
        {
          "internalType": "address",
          "name": "_addr",
          "type": "address"
        }
      ],
      "name": "balanceOf",
      "outputs": [
        {
          "internalType": "uint256",
          "name": "",
          "type": "uint256"
        }
      ],
      "stateMutability": "view",
      "type": "function",
      "constant": true
    }
  ],
  "bytecode": "0x60806040526040518060400160405280600981526020017f48656c6c6f436f696e0000000000000000000000000000000000000000000000815250600090816200004a919062000366565b506040518060400160405280600281526020017f68630000000000000000000000000000000000000000000000000000000000008152506001908162000091919062000366565b503480156200009f57600080fd5b50612710600260003373ffffffffffffffffffffffffffffffffffffffff1673ffffffffffffffffffffffffffffffffffffffff168152602001908152602001600020819055506200044d565b600081519050919050565b7f4e487b7100000000000000000000000000000000000000000000000000000000600052604160045260246000fd5b7f4e487b7100000000000000000000000000000000000000000000000000000000600052602260045260246000fd5b600060028204905060018216806200016e57607f821691505b60208210810362000184576200018362000126565b5b50919050565b60008190508160005260206000209050919050565b60006020601f8301049050919050565b600082821b905092915050565b600060088302620001ee7fffffffffffffffffffffffffffffffffffffffffffffffffffffffffffffffff82620001af565b620001fa8683620001af565b95508019841693508086168417925050509392505050565b6000819050919050565b6000819050919050565b600062000247620002416200023b8462000212565b6200021c565b62000212565b9050919050565b6000819050919050565b620002638362000226565b6200027b62000272826200024e565b848454620001bc565b825550505050565b600090565b6200029262000283565b6200029f81848462000258565b505050565b5b81811015620002c757620002bb60008262000288565b600181019050620002a5565b5050565b601f8211156200031657620002e0816200018a565b620002eb846200019f565b81016020851015620002fb578190505b620003136200030a856200019f565b830182620002a4565b50505b505050565b600082821c905092915050565b60006200033b600019846008026200031b565b1980831691505092915050565b600062000356838362000328565b9150826002028217905092915050565b6200037182620000ec565b67ffffffffffffffff8111156200038d576200038c620000f7565b5b62000399825462000155565b620003a6828285620002cb565b600060209050601f831160018114620003de5760008415620003c9578287015190505b620003d5858262000348565b86555062000445565b601f198416620003ee866200018a565b60005b828110156200041857848901518255600182019150602085019450602081019050620003f1565b8683101562000438578489015162000434601f89168262000328565b8355505b6001600288020188555050505b505050505050565b610721806200045d6000396000f3fe608060405234801561001057600080fd5b506004361061004c5760003560e01c806306fdde031461005157806370a082311461006f57806390b98a111461009f57806395d89b41146100cf575b600080fd5b6100596100ed565b6040516100669190610426565b60405180910390f35b610089600480360381019061008491906104ab565b61017b565b60405161009691906104f1565b60405180910390f35b6100b960048036038101906100b49190610538565b6101c4565b6040516100c69190610593565b60405180910390f35b6100d7610308565b6040516100e49190610426565b60405180910390f35b600080546100fa906105dd565b80601f0160208091040260200160405190810160405280929190818152602001828054610126906105dd565b80156101735780601f1061014857610100808354040283529160200191610173565b820191906000526020600020905b81548152906001019060200180831161015657829003601f168201915b505050505081565b6000600260008373ffffffffffffffffffffffffffffffffffffffff1673ffffffffffffffffffffffffffffffffffffffff168152602001908152602001600020549050919050565b600081600260003373ffffffffffffffffffffffffffffffffffffffff1673ffffffffffffffffffffffffffffffffffffffff1681526020019081526020016000205410156102165760009050610302565b81600260003373ffffffffffffffffffffffffffffffffffffffff1673ffffffffffffffffffffffffffffffffffffffff1681526020019081526020016000206000828254610265919061063d565b9250508190555081600260008573ffffffffffffffffffffffffffffffffffffffff1673ffffffffffffffffffffffffffffffffffffffff16815260200190815260200160002060008282546102bb9190610671565b925050819055507fddf252ad1be2c89b69c2b068fc378daa952ba7f163c4a11628f55a4df523b3ef3384846040516102f5939291906106b4565b60405180910390a1600190505b92915050565b60018054610315906105dd565b80601f0160208091040260200160405190810160405280929190818152602001828054610341906105dd565b801561038e5780601f106103635761010080835404028352916020019161038e565b820191906000526020600020905b81548152906001019060200180831161037157829003601f168201915b505050505081565b600081519050919050565b600082825260208201905092915050565b60005b838110156103d05780820151818401526020810190506103b5565b60008484015250505050565b6000601f19601f8301169050919050565b60006103f882610396565b61040281856103a1565b93506104128185602086016103b2565b61041b816103dc565b840191505092915050565b6000602082019050818103600083015261044081846103ed565b905092915050565b600080fd5b600073ffffffffffffffffffffffffffffffffffffffff82169050919050565b60006104788261044d565b9050919050565b6104888161046d565b811461049357600080fd5b50565b6000813590506104a58161047f565b92915050565b6000602082840312156104c1576104c0610448565b5b60006104cf84828501610496565b91505092915050565b6000819050919050565b6104eb816104d8565b82525050565b600060208201905061050660008301846104e2565b92915050565b610515816104d8565b811461052057600080fd5b50565b6000813590506105328161050c565b92915050565b6000806040838503121561054f5761054e610448565b5b600061055d85828601610496565b925050602061056e85828601610523565b9150509250929050565b60008115159050919050565b61058d81610578565b82525050565b60006020820190506105a86000830184610584565b92915050565b7f4e487b7100000000000000000000000000000000000000000000000000000000600052602260045260246000fd5b600060028204905060018216806105f557607f821691505b602082108103610608576106076105ae565b5b50919050565b7f4e487b7100000000000000000000000000000000000000000000000000000000600052601160045260246000fd5b6000610648826104d8565b9150610653836104d8565b925082820390508181111561066b5761066a61060e565b5b92915050565b600061067c826104d8565b9150610687836104d8565b925082820190508082111561069f5761069e61060e565b5b92915050565b6106ae8161046d565b82525050565b60006060820190506106c960008301866106a5565b6106d660208301856106a5565b6106e360408301846104e2565b94935050505056fea2646970667358221220465db5a532a1ed2f7c4498d33e63e25b3447be5d68ec60f56612d151d72838cb64736f6c63430008130033",
  "immutableReferences": {},
  "source": "// SPDX-License-Identifier: MIT\npragma solidity ^0.8.0;\n\ncontract HelloCoin {\n  string public name = 'HelloCoin'; \n  \n  string public symbol = 'hc'; \n  \n  mapping (address => uint) balances; \n  \n  event Transfer(address _from, address _to, uint256 _value); \n  \n  constructor() { \n    //when the contract is created, the constructor will be called automatically\n    balances[msg.sender] = 10000; \n    //set the balances of creator account to be 10000. Please feel free to change it to any number you want.\n  }\n  function sendCoin(address _receiver, uint _amount) public returns(bool sufficient) {\n    if (balances[msg.sender] < _amount) return false;  \n    // validate transfer\n    balances[msg.sender] -= _amount;\n    balances[_receiver] += _amount;\n    emit Transfer(msg.sender, _receiver, _amount); \n    // complete coin transfer and call event to record the log\n  return true;\n  }\n  function balanceOf(address _addr) public view returns(uint) { \n    //balance check\n    return balances[_addr];\n  }\n}\n",
  "sourcePath": "/Users/sharmaineteo/Documents/switcheo/code-challenge-master/src/problem5/contracts/HelloCoin.sol",
  "compiler": {
    "name": "solc",
    "version": "0.8.19+commit.7dd6d404.Emscripten.clang"
  },
  "schemaVersion": "3.4.13",
  "updatedAt": "2023-04-02T18:10:51.464Z",
  "networkType": "ethereum",
  "devdoc": {
    "kind": "dev",
    "methods": {},
    "version": 1
  },
  "userdoc": {
    "kind": "user",
    "methods": {},
    "version": 1
  }
}