{
  "contractName": "TokenBalanceReader",
  "abi": [
    {
      "inputs": [
        {
          "internalType": "address",
          "name": "userAddress",
          "type": "address"
        },
        {
          "internalType": "address[]",
          "name": "tokenAddresses",
          "type": "address[]"
        }
      ],
      "name": "getBalances",
      "outputs": [
        {
          "components": [
            {
              "internalType": "address",
              "name": "token",
              "type": "address"
            },
            {
              "internalType": "uint256",
              "name": "balance",
              "type": "uint256"
            }
          ],
          "internalType": "struct TokenBalanceReader.TokenBalance[]",
          "name": "",
          "type": "tuple[]"
        }
      ],
      "stateMutability": "view",
      "type": "function",
      "constant": true
    }
  ],
  "bytecode": "0x608060405234801561001057600080fd5b506106cb806100206000396000f3fe608060405234801561001057600080fd5b506004361061002b5760003560e01c80636a385ae914610030575b600080fd5b61004a600480360381019061004591906103e8565b610060565b604051610057919061054a565b60405180910390f35b60606000825167ffffffffffffffff81111561007f5761007e6102a5565b5b6040519080825280602002602001820160405280156100b857816020015b6100a56101ed565b81526020019060019003908161009d5790505b50905060005b83518110156101e25760008482815181106100dc576100db61056c565b5b6020026020010151905060008173ffffffffffffffffffffffffffffffffffffffff166370a08231886040518263ffffffff1660e01b815260040161012191906105aa565b602060405180830381865afa15801561013e573d6000803e3d6000fd5b505050506040513d601f19601f8201168201806040525081019061016291906105f1565b9050600060405180604001604052808886815181106101845761018361056c565b5b602002602001015173ffffffffffffffffffffffffffffffffffffffff168152602001838152509050808585815181106101c1576101c061056c565b5b602002602001018190525050505080806101da9061064d565b9150506100be565b508091505092915050565b6040518060400160405280600073ffffffffffffffffffffffffffffffffffffffff168152602001600081525090565b6000604051905090565b600080fd5b600080fd5b600073ffffffffffffffffffffffffffffffffffffffff82169050919050565b600061025c82610231565b9050919050565b61026c81610251565b811461027757600080fd5b50565b60008135905061028981610263565b92915050565b600080fd5b6000601f19601f8301169050919050565b7f4e487b7100000000000000000000000000000000000000000000000000000000600052604160045260246000fd5b6102dd82610294565b810181811067ffffffffffffffff821117156102fc576102fb6102a5565b5b80604052505050565b600061030f61021d565b905061031b82826102d4565b919050565b600067ffffffffffffffff82111561033b5761033a6102a5565b5b602082029050602081019050919050565b600080fd5b600061036461035f84610320565b610305565b905080838252602082019050602084028301858111156103875761038661034c565b5b835b818110156103b0578061039c888261027a565b845260208401935050602081019050610389565b5050509392505050565b600082601f8301126103cf576103ce61028f565b5b81356103df848260208601610351565b91505092915050565b600080604083850312156103ff576103fe610227565b5b600061040d8582860161027a565b925050602083013567ffffffffffffffff81111561042e5761042d61022c565b5b61043a858286016103ba565b9150509250929050565b600081519050919050565b600082825260208201905092915050565b6000819050602082019050919050565b61047981610251565b82525050565b6000819050919050565b6104928161047f565b82525050565b6040820160008201516104ae6000850182610470565b5060208201516104c16020850182610489565b50505050565b60006104d38383610498565b60408301905092915050565b6000602082019050919050565b60006104f782610444565b610501818561044f565b935061050c83610460565b8060005b8381101561053d57815161052488826104c7565b975061052f836104df565b925050600181019050610510565b5085935050505092915050565b6000602082019050818103600083015261056481846104ec565b905092915050565b7f4e487b7100000000000000000000000000000000000000000000000000000000600052603260045260246000fd5b6105a481610251565b82525050565b60006020820190506105bf600083018461059b565b92915050565b6105ce8161047f565b81146105d957600080fd5b50565b6000815190506105eb816105c5565b92915050565b60006020828403121561060757610606610227565b5b6000610615848285016105dc565b91505092915050565b7f4e487b7100000000000000000000000000000000000000000000000000000000600052601160045260246000fd5b60006106588261047f565b91507fffffffffffffffffffffffffffffffffffffffffffffffffffffffffffffffff820361068a5761068961061e565b5b60018201905091905056fea26469706673582212204add56e11d78fd5e6428d34dd6631cef34ee61e0293e4f7c64870e853bf354fc64736f6c63430008130033",
  "immutableReferences": {},
  "source": "// SPDX-License-Identifier: MIT\npragma solidity ^0.8.0;\n\ninterface IERC20 {\n    function balanceOf(address account) external view returns (uint256);\n}\n\ncontract TokenBalanceReader {\n    struct TokenBalance {\n        address token;\n        uint256 balance;\n    }\n\n    function getBalances(address userAddress, address[] memory tokenAddresses) public view returns (TokenBalance[] memory) {\n        TokenBalance[] memory balances = new TokenBalance[](tokenAddresses.length);\n        for (uint i = 0; i < tokenAddresses.length; i++) {\n            IERC20 token = IERC20(tokenAddresses[i]);\n            uint256 balance = token.balanceOf(userAddress);\n            TokenBalance memory newBalance = TokenBalance(tokenAddresses[i], balance);\n            balances[i] = newBalance;\n        }\n        return balances;\n    }\n}",
  "sourcePath": "/Users/sharmaineteo/Documents/switcheo/code-challenge-master/src/problem5/contracts/TokenBalanceReader.sol",
  "compiler": {
    "name": "solc",
    "version": "0.8.19+commit.7dd6d404.Emscripten.clang"
  },
  "schemaVersion": "3.4.13",
  "updatedAt": "2023-04-02T18:10:51.723Z",
  "networkType": "ethereum",
  "devdoc": {
    "kind": "dev",
    "methods": {},
    "version": 1
  },
  "userdoc": {
    "kind": "user",
    "methods": {},
    "version": 1
  }
}